{
  "_format": "hh-sol-artifact-1",
  "contractName": "HelloRobinhood",
  "sourceName": "contracts/HelloRobinhood.sol",
  "abi": [
    {
      "inputs": [],
      "name": "getMessages",
      "outputs": [
        {
          "components": [
            {
              "internalType": "address",
              "name": "user",
              "type": "address"
            },
            {
              "internalType": "string",
              "name": "text",
              "type": "string"
            }
          ],
          "internalType": "struct HelloRobinhood.Message[]",
          "name": "",
          "type": "tuple[]"
        }
      ],
      "stateMutability": "view",
      "type": "function"
    },
    {
      "inputs": [
        {
          "internalType": "uint256",
          "name": "",
          "type": "uint256"
        }
      ],
      "name": "messages",
      "outputs": [
        {
          "internalType": "address",
          "name": "user",
          "type": "address"
        },
        {
          "internalType": "string",
          "name": "text",
          "type": "string"
        }
      ],
      "stateMutability": "view",
      "type": "function"
    },
    {
      "inputs": [
        {
          "internalType": "string",
          "name": "_text",
          "type": "string"
        }
      ],
      "name": "updateMessage",
      "outputs": [],
      "stateMutability": "nonpayable",
      "type": "function"
    }
  ],
  "bytecode": "0x6080604052348015600f57600080fd5b50610b108061001f6000396000f3fe608060405234801561001057600080fd5b50600436106100415760003560e01c80630d80fefd146100465780631923be24146100775780635ff6cbf314610093575b600080fd5b610060600480360381019061005b91906103d6565b6100b1565b60405161006e9291906104d4565b60405180910390f35b610091600480360381019061008c9190610639565b61018d565b005b61009b610245565b6040516100a891906107da565b60405180910390f35b600081815481106100c157600080fd5b90600052602060002090600202016000915090508060000160009054906101000a900473ffffffffffffffffffffffffffffffffffffffff169080600101805461010a9061082b565b80601f01602080910402602001604051908101604052809291908181526020018280546101369061082b565b80156101835780601f1061015857610100808354040283529160200191610183565b820191906000526020600020905b81548152906001019060200180831161016657829003601f168201915b5050505050905082565b600060405180604001604052803373ffffffffffffffffffffffffffffffffffffffff16815260200183815250908060018154018082558091505060019003906000526020600020906002020160009091909190915060008201518160000160006101000a81548173ffffffffffffffffffffffffffffffffffffffff021916908373ffffffffffffffffffffffffffffffffffffffff160217905550602082015181600101908161023f9190610a08565b50505050565b60606000805480602002602001604051908101604052809291908181526020016000905b8282101561038357838290600052602060002090600202016040518060400160405290816000820160009054906101000a900473ffffffffffffffffffffffffffffffffffffffff1673ffffffffffffffffffffffffffffffffffffffff1673ffffffffffffffffffffffffffffffffffffffff1681526020016001820180546102f29061082b565b80601f016020809104026020016040519081016040528092919081815260200182805461031e9061082b565b801561036b5780601f106103405761010080835404028352916020019161036b565b820191906000526020600020905b81548152906001019060200180831161034e57829003601f168201915b50505050508152505081526020019060010190610269565b50505050905090565b6000604051905090565b600080fd5b600080fd5b6000819050919050565b6103b3816103a0565b81146103be57600080fd5b50565b6000813590506103d0816103aa565b92915050565b6000602082840312156103ec576103eb610396565b5b60006103fa848285016103c1565b91505092915050565b600073ffffffffffffffffffffffffffffffffffffffff82169050919050565b600061042e82610403565b9050919050565b61043e81610423565b82525050565b600081519050919050565b600082825260208201905092915050565b60005b8381101561047e578082015181840152602081019050610463565b60008484015250505050565b6000601f19601f8301169050919050565b60006104a682610444565b6104b0818561044f565b93506104c0818560208601610460565b6104c98161048a565b840191505092915050565b60006040820190506104e96000830185610435565b81810360208301526104fb818461049b565b90509392505050565b600080fd5b600080fd5b7f4e487b7100000000000000000000000000000000000000000000000000000000600052604160045260246000fd5b6105468261048a565b810181811067ffffffffffffffff821117156105655761056461050e565b5b80604052505050565b600061057861038c565b9050610584828261053d565b919050565b600067ffffffffffffffff8211156105a4576105a361050e565b5b6105ad8261048a565b9050602081019050919050565b82818337600083830152505050565b60006105dc6105d784610589565b61056e565b9050828152602081018484840111156105f8576105f7610509565b5b6106038482856105ba565b509392505050565b600082601f8301126106205761061f610504565b5b81356106308482602086016105c9565b91505092915050565b60006020828403121561064f5761064e610396565b5b600082013567ffffffffffffffff81111561066d5761066c61039b565b5b6106798482850161060b565b91505092915050565b600081519050919050565b600082825260208201905092915050565b6000819050602082019050919050565b6106b781610423565b82525050565b600082825260208201905092915050565b60006106d982610444565b6106e381856106bd565b93506106f3818560208601610460565b6106fc8161048a565b840191505092915050565b600060408301600083015161071f60008601826106ae565b506020830151848203602086015261073782826106ce565b9150508091505092915050565b60006107508383610707565b905092915050565b6000602082019050919050565b600061077082610682565b61077a818561068d565b93508360208202850161078c8561069e565b8060005b858110156107c857848403895281516107a98582610744565b94506107b483610758565b925060208a01995050600181019050610790565b50829750879550505050505092915050565b600060208201905081810360008301526107f48184610765565b905092915050565b7f4e487b7100000000000000000000000000000000000000000000000000000000600052602260045260246000fd5b6000600282049050600182168061084357607f821691505b602082108103610856576108556107fc565b5b50919050565b60008190508160005260206000209050919050565b60006020601f8301049050919050565b600082821b905092915050565b6000600883026108be7fffffffffffffffffffffffffffffffffffffffffffffffffffffffffffffffff82610881565b6108c88683610881565b95508019841693508086168417925050509392505050565b6000819050919050565b60006109056109006108fb846103a0565b6108e0565b6103a0565b9050919050565b6000819050919050565b61091f836108ea565b61093361092b8261090c565b84845461088e565b825550505050565b600090565b61094861093b565b610953818484610916565b505050565b5b818110156109775761096c600082610940565b600181019050610959565b5050565b601f8211156109bc5761098d8161085c565b61099684610871565b810160208510156109a5578190505b6109b96109b185610871565b830182610958565b50505b505050565b600082821c905092915050565b60006109df600019846008026109c1565b1980831691505092915050565b60006109f883836109ce565b9150826002028217905092915050565b610a1182610444565b67ffffffffffffffff811115610a2a57610a2961050e565b5b610a34825461082b565b610a3f82828561097b565b600060209050601f831160018114610a725760008415610a60578287015190505b610a6a85826109ec565b865550610ad2565b601f198416610a808661085c565b60005b82811015610aa857848901518255600182019150602085019450602081019050610a83565b86831015610ac55784890151610ac1601f8916826109ce565b8355505b6001600288020188555050505b50505050505056fea2646970667358221220cb5c55094a64864370b4a028110a3405a99c082ecfb311eed7c9069b18cdd2fc64736f6c634300081c0033",
  "linkReferences": {},
  "deployedLinkReferences": {}
}